:0A0046000001020203030404050593
:10080000E4F513F512F511F510C20AC207C209C2C8
:1008100008120C557E0D7F008E518F5275590D7543
:100820005A12754F0D75501C75570D75584A755BEA
:100830000D755C7890E680E030E70E854F5385506B
:1008400054855755855856800C855753855854857F
:100850004F55855056EE54E07002217275140075A4
:1008600015807E0D7F008E168F17C374BE9FFF7498
:100870000D9ECF2402CF3400FEE48F0F8E0EF50DB7
:10088000F50CF50BF50AF509F508AF0FAE0EAD0D39
:10089000AC0CAB0BAA0AA909A808C3121157502A1D
:1008A000E515250BF582E514350AF58374CDF0E4E2
:1008B000FAF9F8E50B2401F50BEA350AF50AE935F2
:1008C00009F509E83508F50880C0E4F50BF50AF5E7
:1008D00009F508AF0FAE0EAD0DAC0CAB0BAA0AA913
:1008E00009A808C31211575037E517250BF582E503
:1008F00016350AF583E0FFE515250BF582E514357D
:100900000AF583EFF0E4FAF9F8E50B2401F50BEAB8
:10091000350AF50AE93509F509E83508F50880B31F
:1009200085145185155274002480FF740D34FFFE28
:10093000C3E55A9FF55AE5599EF559C3E5549FF50D
:1009400054E5539EF553C3E5569FF556E5559EF580
:1009500055C3E5509FF550E54F9EF54FC3E5589FB1
:10096000F558E5579EF557C3E55C9FF55CE55B9E42
:10097000F55BD2E843D82090E668E04409F090E6C1
:100980005CE0443DF0D2AF90E680E020E105D20B80
:10099000120EC890E680E054F7F0538EF8C20A3089
:1009A00008051204EBC208300A291200415024C283
:1009B0000A12112020071690E682E030E704E020BA
:1009C000E1EF90E682E030E604E020E0E412000689
:0809D0001200501209D980C782
:0109D80022FC
:1004EB0090E6B9E0B40C004002E14D9004FC25E02D
:1004FB0073A1AEC151E14DC1E1E14DE14DA114E15B
:10050B004DA1A9A1A4A19AA19F120FFE4002E159EE
:10051B0090E6BBE024FE602A14604324FD601514B2
:10052B00602E24067060E55190E6B3F0E55290E63C
:10053B00B4F0E159E55990E6B3F0E55A90E6B4F022
:10054B00E159E55390E6B3F0E55490E6B4F0E15988
:10055B00E55590E6B3F0E55690E6B4F0E15990E638
:10056B00BAE0FF121082AA06A9077B01EA494B6089
:10057B000CEE90E6B3F0EF90E6B4F0E15990E6A004
:10058B00E04401F0E15990E6A0E04401F0E159129A
:10059B001145E159120EF7E159121045E1591207B5
:1005AB00EDE1591211714002E15990E6B8E0247F58
:1005BB00602914603924026002C148A207E433FFAA
:1005CB0025E0FFA209E4334F90E740F0E4A3F0905D
:1005DB00E68AF090E68B7402F0E159E490E740F084
:1005EB00A3F090E68AF090E68B7402F0E15990E666
:1005FB00BCE0547EFF7E00E0D3948040067C007DFF
:10060B000180047C007D00EC4EFEED4F2446F5820C
:10061B0074003EF583E493FF3395E0FEEF24A1FFD6
:10062B00EE34E68F82F583E0540190E740F0E4A3CB
:10063B00F090E68AF090E68B7402F0E15990E6A018
:10064B00E04401F0E1591211734002E15990E6B810
:10065B00E024FE601A24026002E15990E6BAE0B48D
:10066B000104C207E15990E6A0E04401F0E1599082
:10067B00E6BAE0705890E6BCE0547EFF7E00E0D313
:10068B00948040067C007D0180047C007D00EC4E54
:10069B00FEED4F2446F58274003EF583E493FF3361
:1006AB0095E0FEEF24A1FFEE34E68F82F583E05454
:1006BB00FEF090E6BCE05480FF131313541FFFE0D1
:1006CB00540F2F90E683F0E04420F0E15990E6A020
:1006DB00E04401F08078121175507390E6B8E02475
:1006EB00FE60202402706790E6BAE0B40104D207E2
:1006FB00805C90E6BAE06402605490E6A0E04401AE
:10070B00F0804B90E6BCE0547EFF7E00E0D39480FB
:10071B0040067C007D0180047C007D00EC4EFEEDEC
:10072B004F2446F58274003EF583E493FF3395E046
:10073B00FEEF24A1FFEE34E68F82F583E04401F057
:10074B00800C120056500790E6A0E04401F090E6B2
:05075B00A0E04480F065
:010760002276
:0300330002116D4A
:04116D0053D8EF3232
:100D0000120100020000004047050210000001022D
:100D100000010A06000200000040010009022E0046
:100D200001010080320904000004FF0000000705F3
:100D3000010200020007058102000200070502020D
:100D40000002000705860200020009022E000101D0
:100D50000080320904000004FF00000007050102C2
:100D60004000000705810240000007050202400024
:100D70000007058602400000040309041003430035
:100D80007900700072006500730073003203450043
:100D90005A002D0055005300420020004600580024
:100DA00032004C005000200074006F00200043000F
:100DB00043003200310037002E00310030000000C7
:100B6F00C101C1064220000000C10302270000029C
:100B7F00450000013E000124050122FFC104C1020E
:0F0B8F00C100C105013906022A0000024302001D
:0B003600E5BB30E7FB90E6F1EFF022A5
:100C550090E600E054E74410F000000090E60B74C5
:100C650003F090E61074A0F090E611F000000090FB
:100C7500E61274A2F0000000E490E613F000000014
:100C850090E61474E2F0000000E490E615F0000030
:100C95000090E6047480F00000007402F00000008B
:100CA5007406F0000000E4F000000090E618F00083
:100CB500000090E61A7404F000000090E649748282
:100CC500F0000000F0000000E490E68DF0120DC089
:050CD500D2A8D2882224
:1009D9002000026167300204C20241C1E5AA30E584
:1009E90002616720025BE5AA30E45690E604748050
:1009F900F00000007402F00000007406F00000002E
:100A0900E4F020043C7420F59A7402F59B7AF0799D
:100A1900007EF07F0074F0F59D7400F59EE4F541C9
:100A2900F542C3E5429530E541952F501290E67B9A
:100A3900E090E67CF00542E5427002054180E3D290
:100A490004000000E490E6C4F090E690F0E5264545
:100A5900257028854525854626F52AF52B7420F528
:100A69009A7402F59BE52B452A70107AF879007E75
:100A7900F87F0074F8F59D7400F59E00000090E67B
:100A8900047402F0E490E6C5F090E6D17406F090A3
:100A9900E69174FFF0E4F5BB90E67BE0F52DE0F517
:100AA9003DE0F540E0F538E0F53AE0F53CE0F532B7
:100AB900E0F533604430E71185222990E6F4E0300F
:100AC900E107D529F6D2026167E53330E02B8524A9
:100AD9002CE52C70047F0180027F0090E6F4E0543D
:100AE900014F701590E6C57407F090E6F1E533F013
:100AF900E5BB30E7FB152C80D890E6C57408F0906B
:100B0900E6D1F075BB06E5BB30E7FB90E67CE5383E
:100B1900F0E53AF0E53CF07405259EF59EE59EC3A7
:100B290094055002059D7408252BF52BE4352AF50B
:100B39002AE526152670021525E526452570170094
:100B49000000E52A90E698F0000000E52B90E69970
:100B5900F0E4F52AF52BE52645256002418D30069E
:050B690004C206D2A841
:010B6E002264
:02004100D322C8
:02005000D322B9
:020FFE00D322FC
:1010450090E680E030E71800000090E6247402F096
:10105500000000E490E625F0000000D203801600B1
:101065000000E490E624F000000090E6257440F0CE
:0D107500000000C20390E6BAE0F53FD32270
:1007ED0090E740E53FF0E490E68AF090E68B04F068
:0207FD00D32205
:080EF70090E6BAE0F523D322D6
:1011450090E740E523F0E490E68AF090E68B04F022
:02115500D322A3
:02117100D32287
:02117300D32285
:02117500D32283
:1000560090E6B9E0242F700281AD14700281CC24A1
:1000660020B40800400281E790007825E0500205A0
:100076008373018801F481E72112610F61EF81E743
:100086008136E490E68BF0E5BA20E0FBE490E6C426
:10009600F0000000F53BAF3B7401A807088002C3DF
:1000A60033D8FCF53590E740E05535601F00000079
:1000B60090E6C57406F0000000AF3512003690E6F3
:1000C600C57407F0000000AF35120036053BE53B6E
:1000D600C3940840C190E74074B2F0E490E68AF019
:1000E60090E68B04F090E6A0E04480F081E990E78A
:1000F60040E024FF920174B3F0E490E68AF090E6C3
:100106008B04F090E6A0E04480F081E9E490E68B71
:10011600F000000090E6C4F0E5BA20E0FB7535FF7C
:10012600E5AB30E16B00000090E6047480F000005F
:10013600007402F0E4F53B7402253BF582E43420BA
:10014600F583E0FF7400253BF582E434F0F583EF98
:10015600F0053BE53BB406DFE490E690F0000000D6
:1001660090E6C5F000000090E6D0F090E6D1740667
:10017600F090E691F0000000E4F5BBE5BB30E7FB4C
:1001860090E6497482F0000000E490E604F0807680
:1001960090E747E05535600DE490E6C5F090E740FE
:1001A600E090E6F1F090E747E05535600E90E6C541
:1001B6007401F090E741E090E6F1F090E747E055F2
:1001C60035600E90E6C57402F090E742E090E6F1E5
:1001D600F090E6C57403F090E743E090E6F1F09006
:1001E600E6C57404F090E744E090E6F1F090E6C5C9
:1001F6007405F090E745E090E6F1F090E6C57407E7
:10020600F0E490E6F1F0E5AC30E56400000090E63D
:10021600047480F00000007406F0000000E4F000B2
:10022600000090E6C57408F0000000E490E6D0F007
:1002360000000090E6D17405F000000075BB0600D2
:100246000000E5BB30E7FB90E743E090F805F0904F
:10025600E744E090F806F090E745E090F807F0E410
:1002660090E698F000000090E6997408F041FB9043
:10027600E743E090E740F090E744E090E741F090F4
:10028600E745E090E742F090E6C57408F090E6F1A5
:10029600E090E743F090E6F2E090E743F090E6C5A1
:1002A6007409F090E6F1E090E744F090E6F2E09011
:1002B600E744F090E6C5740AF090E6F1E090E74571
:1002C600F090E6F2E090E745F090E6C5740BF0900A
:1002D600E6F1E090E746F090E6F2E090E746F0902F
:1002E600E6C5740CF090E6F1E090E747F090E6F290
:1002F600E090E747F0E490E68AF090E68B7408F029
:1003060090E6A0E04480F081E9E5AA30E00261D7FA
:100316007AF079007EF07F0074F0F59A7400F59B10
:100326007420F59D7402F59E90E690E0FE90E691AD
:10033600E07C002400F530EC3EF52FE530AE2F785A
:1003460003CEC313CE13D8F9F5468E45E4F541F531
:1003560042C3E5429530E541952F501290E67BE089
:1003660090E67CF00542E5427002054180E300001C
:1003760000E5AA20E54D7420F59A7402F59B7AF8FB
:1003860079007EF87F0074F8F59D7400F59EE4F51B
:1003960041F542C3E5429530E541952F501290E66E
:1003A6007BE090E67CF00542E5427002054180E381
:1003B60090E690E090E698F000000090E691E090DC
:1003C600E699F090E6497482F090E74074B6F080C2
:1003D60005E490E740F0E490E68AF090E68B04F0BE
:1003E60090E6A0E04480F081E9E490E68BF0E5BA7F
:1003F60020E0FB000000E490E6C4F0F53BE5BB30EE
:10040600E7FBE4F53B90E6C5E53BF02440F582E4E6
:1004160034E7F583E090E6F1F0053BE53BB406E50D
:1004260000000090E6C57407F0E490E6F1F081E97B
:1004360090E743E090E740F090E744E090E741F032
:1004460090E745E090E742F0000000E490E6C4F053
:10045600753B03000000E53B240590E6C5F0E5BBCF
:1004660030E7FB90E6F1E0FF7440253BF582E4348B
:10047600E7F583EFF0E5BB30E7FB90E6F2E0FF74CB
:1004860040253BF582E434E7F583EFF0053BE53B99
:10049600B408C0E490E68AF090E68B7408F090E623
:1004A600A0E04480F0803CD200C202C20490E74043
:1004B60074D1F0E490E68AF090E68B04F090E6A022
:1004C600E04480F0801DC20090E74074D2F0E490D2
:1004D600E68AF090E68B04F090E6A0E04480F08097
:0504E60002D322C32235
:1010AD00C0E0C083C082C085C084C086758600D272
:1010BD00085391EF90E65D7401F0D086D084D08511
:0710CD00D082D083D0E03295
:100CDA00C0E0C083C082C085C084C08675860053C8
:100CEA0091EF90E65D7404F0D086D084D085D082EE
:050CFA00D083D0E032C0
:1010FB00C0E0C083C082C085C084C08675860053A3
:10110B0091EF90E65D7402F0D086D084D085D082CA
:05111B00D083D0E0329A
:10100000C0E0C083C082C085C084C086758600856C
:101010005753855854855482855383A37402F085B1
:101020004F55855056855682855583A37407F053D6
:1010300091EF90E65D7410F0D086D084D085D08298
:05104000D083D0E03276
:1010D400C0E0C083C082C085C084C086758600D24B
:1010E4000A5391EF90E65D7408F0D086D084D085E1
:0710F400D082D083D0E0326E
:100E7C00C0E0C083C082C085C084C08675860090E7
:100E8C00E680E030E720854F5385505485548285A9
:100E9C005383A37402F08557558558568556828521
:100EAC005583A37407F05391EF90E65D7420F0D056
:0C0EBC0086D084D085D082D083D0E03274
:01003200329B
:01005200327B
:0107FF0032C7
:010CFF0032C2
:010EFF0032C0
:011177003245
:011178003244
:011179003243
:01117A003242
:01117B003241
:01117C003240
:01117D00323F
:01117E00323E
:01117F00323D
:01118000323C
:01118100323B
:01118200323A
:011183003239
:011184003238
:011185003237
:011186003236
:011187003235
:011188003234
:011189003233
:01118A003232
:01118B003231
:01118C003230
:01118D00322F
:01118E00322E
:01118F00322D
:01119000322C
:01119100322B
:01119200322A
:011193003229
:011194003228
:011195003227
:100B9E006080280203040201030101070202020021
:100BAE00080000001C141C3C3C3C3C3C00000000B7
:100BBE000000003F030402030301010702020200CA
:100BCE00080000001810183C3C3C3C3C00000000A3
:100BDE000000003F0101010801053B070602020467
:100BEE00020801003C3C3C1C1C3C3C3C000000004C
:100BFE0000002D3F040503A00504010702020A05AB
:100C0E000C000C00181018181810183C0000002DBD
:100C1E000000003F60242889000000000000000052
:100C2E0000000000000000000000000000000000B6
:100C3E000000000000000000000000004728826055
:060C4E003C003CCE4E000C
:100DC00090E60174CEF090E6F574FFF0902882E092
:100DD00090E6F3F0902883E090E6C3F0902884E05A
:100DE00090E6C1F0902885E090E6C2F0902887E078
:100DF00090E6C0F0902888E090E6F4F075AF0774B4
:100E000028F59A7402F59B759DE4E4F59EFF90E643
:100E10007BE090E67CF00FBF80F490E67174FFF009
:100E2000F5B490E672E04480F043B680000000E440
:100E300090E6C4F000000090E6C5F0902889E090AC
:100E4000E6C6F090288AE090E6C7F090288BE09004
:100E5000E6C8F090288CE090E6C9F090288DE090EC
:100E6000E6CAF090288EE090E6CBF090288FE090D4
:0B0E7000E6CCF0902890E090E6CDF07A
:010E7B002254
:030003000211687F
:05116800D206C2A8320E
:1000060090E682E030E004E020E60B90E682E03005
:10001600E119E030E71590E680E04401F07F147EB8
:0C00260000120FB890E680E054FEF022BB
:100EC800300B0990E680E0440AF0800790E680E065
:100ED8004408F07FDC7E05120FB890E65D74FFF0E1
:0F0EE80090E65FF05391EF90E680E054F7F02230
:02108200A907BC
:10108400AE5BAF5C8F828E83A3E064037017AD0107
:1010940019ED7001228F828E83E07C002FFDEC3EDF
:0810A400FEAF0580DFE4FEFF52
:0110AC002221
:1011200090E682E044C0F090E681F0438701000041
:041130000000002299
:100FB8008E188F1990E600E054187012E519240174
:100FC800FFE43518C313F518EF13F519801590E6EB
:100FD80000E05418FFBF100BE51925E0F519E518D6
:100FE80033F518E5191519AE18700215184E600575
:060FF80012113480EE220C
:101134007400F58690FDA57C05A3E582458370F9CE
:011144002288
:03004300020F00A9
:03005300020F0099
:100F00000210AD000210FB00020CDA000210D40047
:100F100002100000020E7C000200320002005200AB
:100F20000207FF00020CFF00020EFF000211770013
:100F3000021178000211790002117A0002117B007F
:100F400002117C000200520002117D0002117E009D
:100F500002117F0002118000021181000211820043
:100F600002118300020052000200520002005200EF
:100F7000021184000211850002118600021187000F
:100F8000021188000211890002118A0002118B00EF
:100F900002118C0002118D0002118E0002118F00CF
:100FA00002119000021191000211920002119300AF
:080FB0000211940002119500EA
:0300000002076193
:0C076100787FE4F6D8FD75815C0207A8E3
:10115700EB9FF5F0EA9E42F0E99D42F0E89C45F0EE
:011167002265
:10076D00020800E493A3F8E493A34003F68001F29A
:10077D0008DFF48029E493A3F85407240CC8C3338D
:10078D00C4540F4420C8834004F456800146F6DF5C
:10079D00E4800B0102040810204080900B6FE47E72
:1007AD00019360BCA3FF543F30E509541FFEE49351
:1007BD00A360010ECF54C025E060A840B8E493A318
:1007CD00FAE493A3F8E493A3C8C582C8CAC583CA43
:1007DD00F0A3C8C582C8CAC583CADFE9DEE780BEFB
:010C5400009F
:00000001FF
